:100000000C94E7010C942E020C942E020C94290CF3
:100010000C942E020C942E020C942E020C942E02A0
:100020000C942E020C942E020C94551D0C94271E39
:100030000C946A180C942E020C942E020C942E022E
:100040000C942E020C942E020C942E020C942E0270
:100050000C942E020C94C3180C942E020C942E02B5
:100060000C942E020C942E020C942E020C942E0250
:100070000C942E020C942E020C942E020C942E0240
:100080000C942E020C942E020C942E020C942E0230
:100090000C942E020C942E020C942E020C942E0220
:1000A0000C942E020C942E020C942E020A0F0A0FAE
:1000B0003C0F3C0F9D10890F9D109D10940F2D102B
:1000C0003E103E1035113511471147113E114711B1
:1000D000471147113511351143114711471143118C
:1000E000941EBB1EB31FBB1EB31F071F2A1FB31FC7
:1000F000811F901F2B0034003600370013001C00B6
:10010000E00004001200080018000C00D85C330066
:1001100014000D000E001B00000000000000E200B3
:1001200001512C0029000F00150006000A000900EB
:1001300038001600110017000B00070001001D0019
:1001400019001A0010000500000000000000E30084
:1001500002512A0001001E001F0020002100220081
:1001600001003A003B003C003D003E00010044001D
:100170004500680069001350000000000000010005
:10018000010001003500270026002500240023007F
:10019000010043004200410040003F000100A9006F
:1001A000AA00BB00AE00BC0000000000000001007F
:1001B0004C00010001001E021F0220022102220247
:1001C000010034022F0230022E002D000100340005
:1001D0002F0030002E022D02000000000000010060
:1001E00028000100010027022602550024022302F4
:1001F000010014504E0052004B004A00010039002B
:100200004F00510050004D000000000000000100B0
:10021000010001000000000000005F0060006100BC
:100220000000000000005C005D005E001050000057
:10023000620059005A005B0000000000000001004D
:10024000010001000100005C00000000000000004F
:10025000010000000000000000000000010000009C
:10026000000000000000000000000000000001008D
:10027000010001000000000000000000000000007C
:10028000000000000000000000000000000000006E
:10029000000000000000000000000000000000005E
:1002A0000000000000000000000000000000FD0051
:1002B000000001000000ED000000FE0010500000F2
:1002C000F000EE00EF00FF00000000000000F3006F
:1002D000F100F2000C0343006F0072006E00650035
:1002E0000000100366006F006F007300740061006F
:1002F0006E0000000403090409023B00020100A093
:10030000FA090400000103010100092111010001A3
:100310002240000705810308000A090401000103C7
:100320000000000921110100012249000705820394
:1003300020000A12011001000000085346010001CC
:10034000000102000105010902A10185020901A1C4
:100350000005091901290815002501950875018175
:10036000020501093009311581257F950275088143
:100370000609381581257F950175088106050C0A47
:1003800038021581257F950175088106C0C00501D9
:100390000906A101050719E029E7150025019508BF
:1003A000750181029501750881010507190029FF72
:1003B000150026FF0095067508810005081901291A
:1003C00005950575019102950175039101C01124F0
:1003D0001FBECFEFDAE0DEBFCDBF04B603FE27C0FD
:1003E0008091070290910802A0910902B0910A023F
:1003F0008730904BA740B04BD1F410920702109277
:1004000008021092090210920A0214BE84B7877F74
:1004100084BF0FB6F894A89580916000886180939E
:100420006000109260000FBEE0E0F8E3099511E073
:10043000A0E0B1E0E2EBF0E402C005900D92AC3236
:10044000B107D9F722E0ACE2B1E001C01D92A730BC
:10045000B207E1F70E948D1A0C9457200C9400000B
:100460000C94C40481E0089581E008950C94340252
:1004700008950C9438021F93CF93DF9300D000D0DF
:100480001F92CDB7DEB749835A836B8330916601E3
:1004900089819A81311114C0662359F0222349F0D1
:1004A0000E94F315182F682F89819A810E949A154E
:1004B00003C00E94C615182F69817A81812F04C05C
:1004C0000E94F31569817A810F900F900F900F9021
:1004D0000F90DF91CF911F910C94E902FC01262F20
:1004E000408151816281738184810C943B02CF935E
:1004F000DF93EC0160E00E946E02BE01DF91CF91BC
:100500000C9439020E941A17811102C00E94C1176F
:100510000C9430020C94C20408950E9423110E948E
:100520008C022FEF84E39CE0215080409040E1F763
:1005300000C000000C942A190F931F93CF93DF93F0
:10054000EC0161E00E946E028C01BE010E94360245
:10055000882349F1BE01C8010E947C09882319F152
:10056000BE01C8010E94CE098823E9F0BE01C8017E
:100570000E94F90A8823B9F08A81882369F001155D
:100580008CE5180731F00F3D1C4531F40E94C1176E
:100590000AC00E948D0207C0CE01DF91CF911F914A
:1005A0000F910C94320280E0DF91CF911F910F9157
:1005B000089508950C94D90281E008950C94DC020A
:1005C000CF93C82F0E94DA028C2F0E94DE02CF91B7
:1005D000089520E3829FC0011124FC0126E0729F50
:1005E000E00DF11D1124E60FF11DEE0FFF1FEC5081
:1005F000FF4F859194910895CF93DF930E94E90274
:100600000E94D903EC018115924580F5C11581E561
:10061000D80708F095C0CF3FD10509F0B8F4CD3E1A
:10062000D10508F06CC0C53AD10548F4C430D105F5
:1006300008F0BBC0C130D10509F4B7C0B4C0CE01C9
:10064000805E9109089708F4B0C0ADC0C11590E56F
:10065000D90708F059C0C11520E4D20708F051C0ED
:10066000C11580E2D80708F4A0C09DC0C11596E569
:10067000D90718F5C11525E5D20708F07AC0C115CC
:1006800084E5D80708F070C09E01237033278C2FB3
:1006900086958695C115D34508F057C0C1E0D0E0D6
:1006A00002C0CC0FDD1F2A95E2F720E2829FC00135
:1006B0001124C82BD92BDC6878C0C1152AE5D207D4
:1006C00078F4C11589E5D80708F05DC0C11598E533
:1006D000D90708F468C0DC2FCC27C06FD06A65C08A
:1006E000CE0190568115904208F05DC08D2F8F711C
:1006F0000E946D04DD27D0628F71D82B56C0D06563
:1007000054C0DF70D06A51C0CE0174E096958795D1
:100710007A95E1F783709C2F937021E030E002C05E
:10072000220F331F9A95E2F73C68382BCF70C6959D
:10073000C69580E2C89FE0011124C22BD32B35C09F
:10074000DC2FCC27C16FD06A30C0C1E0D0E002C03E
:10075000CC0FDD1F2A95E2F720E2829FC001112411
:10076000C82BD92BDA6821C0DC2FCC27C46FD06A04
:100770001CC08C2F0E946D048F71C82FD0E0DC2F1D
:10078000CC27D06212C08C2F8F700E946D0494E031
:10079000D695C7959A95E1F7CF70D0E0DC2FCC279E
:1007A000D069C82B02C0C0E0D0E0CE01DF91CF916C
:1007B00008958238910569F1B0F48133910509F407
:1007C0006DC048F48932910509F463C08A329105FD
:1007D00009F469C008958533910509F455C089333A
:1007E0009105B9F00895833E910569F138F4803E92
:1007F0009105B1F0823E910509F10895863E91057B
:10080000A9F1873E9105B9F1843E910509F064C0D4
:1008100023C02091F80120FD4FC021FD4DC0089557
:100820008091F80180FD44C08091F90180FF44C0AF
:100830008091F80184FD42C083EE4DC08091F801A3
:1008400082FF38C0F5CF8091F80182FD33C08091DE
:10085000F90180FD31C0ECCF8091F90181FF32C0F8
:100860008091F80184FD2AC087EE35C08091F8019F
:1008700083FF26C0F5CF8091F80183FD21C08091D0
:10088000F90181FD1FC0ECCF8091F80185FD1CC0EE
:100890001DC08091F80185FD19C016C08091F80136
:1008A00086FD16C017C08091F80186FD13C010C0E8
:1008B00089E311C082EE0FC080EE0DC080E00BC056
:1008C00086EE09C084EE07C089E205C085E303C057
:1008D0008AE201C081E390E008959091F80192FFCF
:1008E0000DC0282F2871283019F4877F846006C036
:1008F000282F2471243011F48B7F886093FF0DC062
:10090000282F2871283119F4877E846106C0282F8A
:100910002471243111F48B7E88612091F90120FF2C
:100920000DC0382F3871383019F4877F816006C0C8
:10093000382F3171313011F48E7F886021FF0DC066
:10094000282F2871283119F4877E816106C0282F4D
:100950002171213111F48E7E886194FD877E089586
:10096000E82FF0E0EA51FE4F80810895089580EA73
:100970008A95F1F7089500C008950C94B70408957E
:100980000C94BF040C94C0040C94BF04F894E82F9A
:10099000E295EF70F0E031A1282F2F7081E090E018
:1009A00001C0880F2A95EAF7982F9095932391A379
:1009B00092A1892B82A37894089508950F931F9391
:1009C000CF93DF930E946506809100018091000122
:1009D000811102C094E001C090E09093EF0184E0A7
:1009E000891B8093EE0184E90E94C60486E60E947A
:1009F000C60487E90E94C60486EC0E94C604CEE1C4
:100A0000D1E004E211E089910E94C6040C171D0791
:100A1000D1F7EEEDF1E0A6EEB1E011921D9281E08A
:100A2000E63EF807D1F784E00E940F060E9482029A
:100A3000DF91CF911F910F910C946F061F93CF936D
:100A4000DF9300D000D0CDB7DEB70E94460660919C
:100A5000EF01882309F442C019821A821B821C828A
:100A6000862F90E0BE016F5F7F4F8A519E4F0E949C
:100A7000360B811117C080912E018F5F80932E015C
:100A8000863040F1E091EE01F0E0EA51FE4FDE01E8
:100A90001196CE01059611921D92A817B907D9F7A4
:100AA00011E019C010922E01E091EE01F0E0EA5140
:100AB000FE4FDE0111969E012B5F3F4F10E08D919E
:100AC0009081981711F0808311E03196A217B30737
:100AD000B1F701C010E00E948A020DC070E06A51B7
:100AE0007E4F8091EE0190E08A519E4F0E94600BF4
:100AF0000E94DD0410E0812F0F900F900F900F9057
:100B0000DF91CF911F9108958F929F92AF92BF92E4
:100B1000CF92DF92EF92FF920F931F93CF93DF93C9
:100B200084E2A82E81E0B82ECEEDD1E098E2E92E45
:100B300091E0F92E912C01E010E06501F501808132
:100B4000F894E82FE295EF70F0E021A18F70A801F2
:100B500002C0440F551F8A95E2F7CA01922F982BC5
:100B600091A392A18095892382A378940E94BB04CB
:100B7000EEE1F1E020E030E0812C4191A42FA2953C
:100B8000AF70B0E090968C9190E04F7002C0959558
:100B900087954A95E2F780FD07C0802F022E01C09D
:100BA000880F0A94EAF701C080E0882A2F5F3F4F40
:100BB0002630310511F75FEFA51AB50AF6018081DD
:100BC0000E94C6040E94BD048881881619F088829C
:100BD00081E001C080E0982A2196EA14FB0409F024
:100BE000ACCF6091EF0170E06A517E4F292D44E057
:100BF0008EED91E00E9410060E941E05992011F0D2
:100C000081E090E0DF91CF911F910F91FF90EF90E5
:100C1000DF90CF90BF90AF909F908F9008950895F0
:100C2000FF920F931F93CF93DF938C01F62ED72F54
:100C3000C42F222349F081E0809331010E949C1847
:100C40009093300180932F01809131018823C1F06E
:100C500080912F01909130010E94B418069780F086
:100C6000EF2DFD2FD8014C2F50E0CD01801B910BB3
:100C7000841795071CF48D918193F7CF1092310161
:100C8000DF91CF911F910F91FF90089580913201D4
:100C9000811112C08091D80080618093D8008AE1D0
:100CA0008A95F1F700C08091D90080FD02C082E0F2
:100CB00001C081E08093320181E090913201913056
:100CC00009F080E008950C9446060E946306809324
:100CD00000010E94460681110C942A0B08950E947F
:100CE0004606811102C00C94300B089580913901A1
:100CF00080FF0BC06091060185E0689FB001112460
:100D000075956795759567952BC081FF09C06091B2
:100D1000060185E0689FB00111247595679520C094
:100D200082FF07C06091060185E0689FB001112431
:100D300017C0909138019923D1F060910501961761
:100D400088F72091060185E0289F90011124929F49
:100D5000A001939F500D112470E0CA010E94E71F6B
:100D60006038710540F46115710519F406C065E03D
:100D700070E0862F08958FE7089581E008958091AF
:100D8000390180FF08C06091020170E07595679598
:100D90007595679521C081FF06C06091020170E0E2
:100DA0007595679519C082FF04C06091020170E0DB
:100DB00010C090913701992399F060910101961725
:100DC000A0F780910201899FC001112470E00E9468
:100DD000E71F6038710540F46115710519F406C00C
:100DE00061E070E0862F08958FE7089581E008950F
:100DF0008D3E21F40E947606819504C08E3E29F432
:100E00000E94760680933D0108958F3E21F40E9452
:100E10007606819504C0803F29F40E94760680936F
:100E20003C010895893F19F40E94BF0605C08A3F1E
:100E300031F40E94BF06819580933E0108958B3F57
:100E400021F40E94BF06819504C08C3F29F40E94C2
:100E5000BF0680933F0108959FE0980F983078F483
:100E600021E030E0A90102C0440F551F9A95E2F736
:100E7000CA0190913B01892B80933B0108958D3FDE
:100E800021F48091390181600BC08E3F21F4809163
:100E90003901826005C08F3F29F480913901846057
:100EA0008093390108958D3E39F490913D0197FF6B
:100EB00035C010923D0159C08E3E29F490913D01FC
:100EC0001916BCF32BC090913C018F3E29F497FF7B
:100ED00025C010923C0149C0803F19F41916CCF38B
:100EE0001DC090913E01893F29F41916BCF410925F
:100EF0003E013BC08A3F19F497FF10C0F8CF8B3FEB
:100F000039F490913F0197FF09C010923F012DC025
:100F10008C3F21F490913F011916BCF39FE0980F8C
:100F2000983080F421E030E0A90102C0440F551F41
:100F30009A95E2F7CA01809590913B0189238093AD
:100F40003B0113C08D3F21F4809139018E7F0BC08E
:100F50008E3F21F4809139018D7F05C08F3F29F4A8
:100F6000809139018B7F8093390180913C018111FF
:100F700006C080913D01811102C01092380180911C
:100F80003E01811106C080913F01811102C0109283
:100F9000370108950E949C1820913C01211104C042
:100FA00020913D01222321F0909336018093350159
:100FB00020913E01211104C020913F01222321F004
:100FC00090933401809333018AE391E00C94E30C15
:100FD000EF92FF920F931F93CF93DF9300D000D037
:100FE00000D0CDB7DEB786E0EAE3F1E0DE0111968E
:100FF00001900D928A95E1F7E0903C01F0903D015F
:1010000000913E0110913F0110923C0110923D0170
:1010100010923E0110923F01E11003C0FF2009F43D
:101020005DC080913501909136010E94B418AC01E9
:1010300090913801992339F02091070130E024176D
:10104000350758F04BC0209108018AE0289F900195
:1010500011242417350718F041C09F3F19F09F5FF6
:1010600090933801EE2061F00E9476061E1414F071
:101070009FEF01C091E0989F902D112490933C0127
:10108000FF2061F00E9476061F1414F09FEF01C04C
:1010900091E0989F902D112490933D0130913C0157
:1010A0003323E1F020913D012223C1F045EB3403CD
:1010B000C0011124992319F090933C0103C081E0F1
:1010C00080933C0135EB2303C0011124992319F0CF
:1010D00090933D0103C081E080933D01011103C065
:1010E000112309F45DC080913301909134010E9475
:1010F000B418AC0190913701992339F02091030184
:1011000030E02417350758F04BC0209104018AE0E5
:10111000289F900111242417350718F041C09F3FE4
:1011200019F09F5F90933701002361F00E94BF0682
:10113000101614F09FEF01C091E0989F902D11249C
:1011400090933E01112361F00E94BF06111614F026
:101150009FEF01C091E0989F902D112490933F0143
:1011600030913E013323E1F020913F012223C1F071
:1011700045EB3403C0011124992319F090933E01EB
:1011800003C081E080933E0135EB2303C0011124AD
:10119000992319F090933F0103C081E080933F01B0
:1011A00080913C0181110BC080913D01811107C0EC
:1011B00080913E01811103C080913F0181110E9405
:1011C000CA07EB82FC820D831E8386E0FE01319606
:1011D000AAE3B1E001900D928A95E1F726960FB649
:1011E000F894DEBF0FBECDBFDF91CF911F910F915D
:1011F000FF90EF900895EAE3F1E086E0DF011D92B1
:101200008A95E9F71092380110923701109239014E
:1012100008950F931F93CF93DF93C42FD22FFC0118
:1012200082818823C9F0409342010E949C189093C8
:1012300041018093400180E28C0F883008F057C054
:10124000C77081E001C0880FCA95EAF7DF91CF919E
:101250001F910F910C94C50E80914201481330C02C
:1012600080914001909141010E94B418883C910501
:1012700038F510E21D0FCD17B9F080E28C0F8830E1
:1012800040F4C77081E001C0880FCA95EAF70E9458
:10129000CC0E183028F581E09D2F977001C0880F83
:1012A0009A95EAF70E94C50E802F0E94BC0E183056
:1012B000F0F4D77081E001C0880FDA95EAF70AC030
:1012C00080E28C0F883098F4C77081E001C0880FED
:1012D000CA95EAF7DF91CF911F910F910C94CC0E34
:1012E000802FDF91CF911F910F910C94BC0EDF9155
:1012F000CF911F910F9108950F939C01CB01243F33
:101300004CE5340731F188F4293DFCE53F07D9F07D
:101310002A3D4CE5340779F1283D3C45A9F506E224
:1013200021EE41EE68ED7CE52BC0263FFCE53F0752
:10133000E1F0A8F0273F3C4539F507E225EE46EEFF
:1013400067EF7CE51DC007E225EE45EE69ED7CE523
:1013500017C006E221EE40EE64EF7CE511C007E223
:1013600025EE44EE65EF7CE50BC006E221EE42EE91
:1013700066EF7CE505C008E221E045EE6AED7CE51C
:101380000E94090980E008C0FC018281882319F0CD
:101390001092420101C081E00F910895CF93DF9335
:1013A000EC01FB018281882309F41FC1C230FCE5F6
:1013B000DF0708F41BC1C6319CE5D90738F09E0150
:1013C0002B5F3C452930310508F010C10E942D17D4
:1013D0009093F9018093F801C031ECE5DE0709F440
:1013E000C3C008F041C0C8308CE5D80709F49AC0E2
:1013F000F0F4C430ECE5DE0709F487C068F4C230CD
:101400008CE5D80709F477C0C330DC4509F0E3C0A8
:101410008091F801826076C0C630ECE5DE0709F401
:101420006EC008F07BC08091F80188606BC0CC3042
:101430008CE5D80709F485C068F4CA30ECE5DE070E
:1014400009F474C008F079C00E9423118091F8015A
:10145000806858C0CE308CE5D80709F476C008F013
:101460007FC08091F8018BC0CC3FECE5DE0709F42A
:101470004FC018F5C3318CE5D80709F47DC078F466
:10148000C131ECE5DE0709F473C0C231DC4509F077
:10149000A2C00E9423118091F8018F7733C0C5311B
:1014A0008CE5D80709F472C008F486C0CB3FDC4550
:1014B00009F091C08091F9013EC0C115FDE5DF073B
:1014C00009F45FC058F4CE3F9CE5D90709F444C045
:1014D00008F43FC08091F90182602DC0C230FDE563
:1014E000DF0709F475C008F45DC0C330DD4509F0BD
:1014F00072C080E06EC08091F801816003C080916D
:10150000F80180618093F80166C08091F80111C0F4
:101510008091F90182608093F9015DC08091F801AA
:101520008062F0CF8091F8018064ECCF8091F80167
:1015300088608460E7CF8160EECF8091F8018E7F74
:10154000E1CF8091F8018D7FDDCF8091F801877F19
:10155000D9CF8091F90118C08091F9018D7FDBCF3F
:101560008091F8018F7ECECF8091F8018F7DCACF18
:101570008091F8018F7BC6CF8091F801877F8B7FA8
:10158000C1CF8091F9018D7F8E7FC5CF8091F80109
:1015900082FB222720F991E0922790FB82F990FBB1
:1015A00083F9B0CF8091F901982F909591708E7F3B
:1015B000892B90FB81F9AFCF0E9423118091F80114
:1015C00087FB222720F991E0922790FB87F99ACF99
:1015D00081E00E94C3178091F8019091F9010E9467
:1015E0003E170E94231180E001C081E0DF91CF917E
:1015F0000895CF93DF9386319C4541F5EB010E941E
:101600007416982F8A81209111013091120188233C
:1016100079F09A7A81E009F480E080934301911196
:1016200002C069E201C065E3C9010E940A180AC04C
:1016300080914301811102C069E201C065E3C901E3
:101640000E940C180E94B51680E001C081E0DF9175
:10165000CF91089561E070E089E091E00C94DB0B9C
:1016600061E070E089E091E00C94E20BCF93DF93AE
:10167000D62FC72F0E947A0C892BF1F4ED2FFC2F67
:1016800080E090E0DC01A75BBE4F2C912193019696
:1016900084309105B9F70E940F19DC01CB01029645
:1016A000A11DB11D8093450190934601A093470170
:1016B000B093480181E001C080E0DF91CF910895AF
:1016C000CF93DF93D62FC72F6091450170914601CC
:1016D00080914701909148010E94F218ED2FFC2F54
:1016E00080E090E02191DC01A75BBE4F2C93019636
:1016F00084309105B9F7DF91CF9108958EE14A9B2F
:1017000002C08150E1F74A9BFECF08955A9880E2CB
:101710008A95F1F75A9A0895FC012AE02A95F1F783
:1017200028E090E080E031E040E14A95F1F7880F51
:101730004A9B02C08160932700C0000040E14A95A7
:10174000F1F7215089F720E12A95F1F729B100C07E
:10175000000030E13A95F1F722FB222720F9922789
:101760002081920F90830895EF92FF920F931F9321
:10177000CF93DF931F92CDB7DEB719828C017C0126
:10178000E60EF11C0E151F0551F00E947E0BCE01D6
:1017900001960E948C0BF80181938F01F3CF81E0B9
:1017A0009981911180E00F90DF91CF911F910F915E
:1017B000FF90EF90089590934E0180934D01529ABF
:1017C0005A9A089590934E0180934D0152985A9AD7
:1017D000EA9AE9E6F0E080818F7C80830895615089
:1017E00091E001C0990F6A95EAF720E031E0992372
:1017F00061F0492F482319F05A9A232701C05A98BB
:1018000040E24A95F1F79695F2CF222311F05A9AC9
:1018100001C05A9880E28A95F1F75A980895FF928C
:101820000F931F93CF93DF93EC018C01060F111DD3
:10183000C017D10741F0F9900E94860B68E08F2D08
:101840000E94EF0BF5CFDF91CF911F910F91FF9089
:1018500008951F920F920FB60F9211242F933F936A
:101860004F935F936F937F938F939F93AF93BF93A8
:10187000CF93DF93EF93FF935A98529AC0914D0103
:10188000D0914E016D81662321F08E819F810E944F
:101890000F0C0E94860B80E18A95F1F75A985298B6
:1018A0005A9A80E18A95F1F76A81662351F08B811B
:1018B0009C810E94B40BE881F981811104C082E00F
:1018C00003C0E881F98188E080830E947E0BFF914C
:1018D000EF91DF91CF91BF91AF919F918F917F91C8
:1018E0006F915F914F913F912F910F900FBE0F908D
:1018F0001F901895CF93DF93C0914D01D0914E0169
:10190000F894529A5A9885E08A95F1F70000529817
:101910005A9A80E28A95F1F74A9B0AC0529A5A9ADB
:10192000E881F98181E08083789481E090E02CC0A7
:101930006D81662381F08E819F810E94B40B81119D
:101940000AC0529A5A9AE881F98182E08083789499
:1019500082E090E019C00E947E0B80E28A95F1F748
:101960005A98529A80E18A95F1F76A81662321F0AC
:101970008B819C810E940F0C0E94860BE881F9816B
:101980001082789480E090E0DF91CF910895909359
:101990005401809353010895E0915301F091540153
:1019A000309721F00190F081E02D099480E00895B6
:1019B000E0915301F0915401309721F00280F381BE
:1019C000E02D09940895E0915301F091540130976E
:1019D00039F022E0DC012C930480F581E02D09949C
:1019E000089520915101309152012817390771F063
:1019F0009093520180935101E0915301F091540171
:101A0000309721F00680F781E02D09940895209108
:101A10004F01309150012817390771F09093500110
:101A200080934F01E0915301F0915401309721F0E0
:101A30000084F185E02D099408950E94A818609310
:101A400062017093630180936401909365016093D8
:101A50005E0170935F01809360019093610108952E
:101A600085B7806885BF85B7806885BF08950C9469
:101A7000460608950C94390D0C94390D0C943C0DC8
:101A80000C94390D0C94400D0C94390D0E94300DBE
:101A900088E197E10E943B190E94440D0C94420D8D
:101AA0000E9493180E94E9180E94DE040E944019C7
:101AB0000C943E0D9F92AF92BF92CF92DF92EF9225
:101AC000FF920F931F93CF93DF93CDB7DEB72A9783
:101AD0000FB6F894DEBF0FBECDBF0E943A0D0E9434
:101AE000390D0E94840581110E941D0D86E5A82EE6
:101AF00081E0B82E00E010E0902E802F0E94B0040C
:101B0000D82EF501C1905F01C826B1F40F5F1F4FB9
:101B10000830110589F78FEF89838A831B820E9421
:101B20009C188160782F9D838C8349815A816B81B9
:101B30008D810E94FC0D2FC08091D20181FD0E94F9
:101B4000B604E12CFF24F3948C2D8F21F1F00E9438
:101B5000370D882399F0EE829F82DF2081E009F41F
:101B600080E088870E949C188160782F9A878987F7
:101B70004E815F8168858A850E94FC0DF801EA5AD2
:101B8000FE4F8081F826F08206C0E394FF0CF6E059
:101B9000EF12DACFBBCF0E94E8070E94CC0C9091E5
:101BA00055018917B9F00E94CC0C809355012A96F3
:101BB0000FB6F894DEBF0FBECDBFDF91CF911F915E
:101BC0000F91FF90EF90DF90CF90BF90AF909F90DC
:101BD0000C94E0022A960FB6F894DEBF0FBECDBF7C
:101BE000DF91CF911F910F91FF90EF90DF90CF90F9
:101BF000BF90AF909F900895DF92EF92FF920F9366
:101C00001F93CF93DF93CDB7DEB72B970FB6F89422
:101C1000DEBF0FBECDBFF42E052F162FE72ED82E18
:101C200061110E949416FE01319686E0DF011D923B
:101C30008A95E9F77E2D4F2D502F612F8D2D9E8196
:101C40000E94DC132B960FB6F894DEBF0FBECDBFFB
:101C5000DF91CF911F910F91FF90EF90DF9008954A
:101C6000FC01808191810E9435160895CF938823CD
:101C7000B1F1C82F8CEF8C0F813AD0F46C2F80918A
:101C80001101909112010E94D417882349F06C2F02
:101C900080911101909112010E940C180E94B516BA
:101CA0006C2F80911101909112010E940A180CC0B2
:101CB00080E28C0F883058F4C77081E001C0880F33
:101CC000CA95EAF70E947716CF910C94B516CD3ECF
:101CD00030F08C2F0E94F806CF910C94CA07CF9158
:101CE0000895882389F19CEF980F913A40F4682F6A
:101CF00080911101909112010E940C180DC090E288
:101D0000980F983058F4877091E001C0990F8A9528
:101D1000EAF7892F0E947D160C94B5169BE5980F63
:101D2000933020F480E090E00C94F10C98E5980F4B
:101D3000973120F480E090E00C94070D8D3E20F068
:101D40000E9453070C94CA0708951F93CF93DF9303
:101D5000182FEB010E94360E209741F08FE99FE08B
:101D60000197F1F700C000002197F6CF812FDF9196
:101D7000CF911F910C94710E893319F060E070E0DF
:101D800002C060E570E00C94A50E882321F00E944B
:101D900077160C94B5160895882321F00E947D16BD
:101DA0000C94B5160895CF92DF92EF92FF920F93A5
:101DB0001F93CF93DF937C01D62FC72FFC010281A5
:101DC000158112951F700E946D16882399F00023CB
:101DD00089F08C2F807F803421F080E28D0F883055
:101DE00048F082E00E94FF160E946D1691E0D82E06
:101DF000D92601C0D12CCC2EC2948FE0C8228C2DC4
:101E000090E08C30910508F098C1FC01EA5AFF4F30
:101E10000C94FB1F8C2F807FCF70882311F0C2950C
:101E2000C07F002399F0CC2309F473C180E28D0FA9
:101E3000883010F0D11104C08C2F0E94771603C097
:101E40008C2F0E9487160E94B51663C18D2F0E94A9
:101E5000710ECC2309F471C180E28D0F883010F02F
:101E6000D11104C08C2F0E947D1603C08C2F0E94BC
:101E70008D160E94B51661C18C2F807FCF70803285
:101E800011F0C295C07FDD2319F0D130C9F022C016
:101E9000002371F0112341F0113031F40E949A16A1
:101EA0008C2B0E94A21649C10E949A168C2B1DC031
:101EB000112319F0113009F440C10E94AB1625C05E
:101EC000002321F0163008F038C10EC0153008F09C
:101ED00034C11BC0002361F0112331F0F70185816B
:101EE00080FF17C18F7085838C2F0E94C50E25C17E
:101EF000112359F0D93309F01DC1FFEF07EE13E0AC
:101F0000F15000401040E1F713C18C2F0E94CC0E1D
:101F100014C18D2F002319F00E94F80602C00E9400
:101F200053070E94CA0711C18C2F837009F047C064
:101F3000011107C12D2F229526952770220F220F00
:101F40006D2F6F70862F90E0A0E0B0E0022E04C0ED
:101F5000880F991FAA1FBB1F0A94D2F7D4FF10C085
:101F60004FE050E060E070E004C0440F551F661F72
:101F7000771F2A95D2F7409550956095709503C0CC
:101F800040E050E0BA01C695C695C3708A019B0136
:101F9000082B192B2A2B3B2BC901B801C23049F061
:101FA00058F4C13019F00E94B014CBC00E949E14A6
:101FB000C8C00E94C214C5C00E949C14C2C00023A5
:101FC00019F08C2F817001C08695882309F4B9C05F
:101FD0002D2F229526952770220F220F6D2F6F70BF
:101FE000862F90E0A0E0B0E0022E04C0880F991F79
:101FF000AA1FBB1F0A94D2F7D4FF10C04FE050E0D5
:1020000060E070E004C0440F551F661F771F2A95DB
:10201000D2F7409550956095709503C040E050E030
:10202000BA01C695C695C3708A019B01082B192B6E
:102030002A2B3B2BC901B801C23049F058F4C130FA
:1020400019F00E9475157DC00E9463157AC00E9428
:10205000871577C00E94D61474C0CF70002339F062
:102060008C2F0E94FC148D2F0E94C50E6AC08D2FEC
:102070000E94CC0E8C2F0E941D1563C0D23F01F12F
:1020800028F4D03F41F0D13FA1F03FC0D33FF9F059
:10209000D43F39F13AC0002341F0153008F04DC06B
:1020A0008C2F8F710E94421548C0163008F045C031
:1020B000F7CF002339F08C2F8F710E94FC143DC0A4
:1020C0000023C9F38C2F8F710E941D1536C0002389
:1020D00029F08C2F8F710E94E7142FC00E94E21408
:1020E0002CC0002349F0CF718C2F0E94FC1463E0B8
:1020F0008C2F0E94EA1621C081E00E94FF16123048
:10210000E0F082E00E94FF1618C0002331F0112396
:1021100091F28D2F0E94360E10C0112399F2D933FF
:1021200049F41FEF27EE33E0115020403040E1F733
:1021300000C000008D2F0E94710E88EF8C0D84303E
:1021400020F40E94CC0C0E94E002DD20C9F00E9425
:10215000691680FD15C0F70112820E9463160E9465
:10216000FC14C7010E94E1100E946316DF91CF9119
:102170001F910F91FF90EF90DF90CF900C941D1561
:10218000DF91CF911F910F91FF90EF90DF90CF9053
:1021900008950F931F93CF93DF93EC0168817981AA
:1021A0008A810E9440168C010E9499150E948A140F
:1021B000B801CE010E94D30EDF91CF911F910F91F4
:1021C0000895CF93DF93EC01988189812B813C8125
:1021D000232B31F08F3F31F481E09F3F19F403C08E
:1021E00081E001C080E080FD19C0CE010E949C0208
:1021F00081110CC00E946D16882381F08A8188238A
:1022000069F082E0DF91CF910C94FF16CE010E941D
:10221000C910CE01DF91CF910C947702DF91CF915D
:1022200008950E9494160E9497160E94B5160E9467
:10223000FB080C94CA0780911101909112010E9431
:102240000E180C9411110E9484160C941B11E92F86
:10225000E295EF704E2F50E0FA013297EE30F10523
:10226000B0F4EE59FF4F0C94FB1F803F91F018F42F
:10227000883E68F40EC0843F51F40BC0883E48F09D
:10228000813F29F406C093FB882780F9089580E0F8
:10229000089581E008950E9435160E94271108953F
:1022A000CF93DF9300D000D01F92CDB7DEB70F9051
:1022B0000F900F900F900F90DF91CF910895CF93D3
:1022C000DF9300D000D000D0CDB7DEB726960FB692
:1022D000F894DEBF0FBECDBFDF91CF9108951F935D
:1022E000CF93DF93C091670116E080916801C81712
:1022F00099F0D0E01C9FF0011D9FF00D1124E759CB
:10230000FE4F4081518162817381848195810E9459
:102310005F112196C770E9CFDF91CF911F9108958A
:102320004091990150919A0160919B0170919C019B
:1023300080919D0190919E010C945F110F931F93CA
:10234000CF93DF9380919E0182958F7009F05DC0DD
:1023500080919B01882309F458C0809167011091F6
:1023600068016091990170919A01C0919C01D0918E
:102370009D0191E06F3F09F090E0292F06E0811761
:1023800009F443C0209721F07F3F21F030E003C0E3
:1023900031E001C0322F90E030FD34C0089FF001E1
:1023A000099FF00D1124DF01A759BE4F11963C91F2
:1023B0001197371327C03C91361324C012963C91D5
:1023C000129731111FC013964D915C9114974C1BBD
:1023D0005D0B483C5105B0F480919E018F70806187
:1023E00080939E01E259FE4F80818F7080618083CF
:1023F00089E991E00E94E110DF91CF911F910F9147
:102400000C946F1101968770BACFDF91CF911F9115
:102410000F9108959F92AF92BF92CF92DF92EF9269
:10242000FF920F931F93CF93DF93CDB7DEB76197E2
:102430000FB6F894DEBF0FBECDBF8C0185E0F8016A
:10244000DE011D9601900D928A95E1F7F801408119
:102450005181E2809091990160919A0120919C01B3
:1024600030919D012115310531F06F3F31F481E04C
:102470009F3F19F403C081E001C080E0F82FF170A4
:102480009F2E80FD46C1F801A380B48089E9C82E43
:1024900081E0D82EF0909B01F501E21BF30BFF20A9
:1024A00009F4DFC080919E01E83CF10508F09BC073
:1024B000282F207F09F052C0561313C0491311C0B2
:1024C000FE2CE1100EC08F70806180939E010E94EF
:1024D0009011C6010E94E11080919E01F801858350
:1024E00058C1AB2831F05F3F31F481E04F3F19F420
:1024F00003C081E001C080E080FD03C081E08E2543
:1025000002C080E090E0F82FF170FF2E80FF1CC029
:10251000809167012091680136E0821709F417C1A4
:1025200090E0389FF001399FF00D1124E759FE4FDC
:102530006181561306C06081461303C06281E612B2
:1025400003C001968770E9CFFE2CEE2009F421C16B
:1025500080919E01816080939E015AC0561306C0EF
:10256000491304C0E11002C0F8019FC04D875E8787
:102570008D859E850E944B11882379F1EE2069F1AB
:1025800020919E01822F82958F7090E0029774F0C7
:102590008091990190919A0198878F831986BB86C3
:1025A000AA862C87CE0107960E94E11086E0F801EA
:1025B000A9E9B1E001900D928A95E1F70E949E1180
:1025C0000E9490110DC0561729F14D875E878D85A9
:1025D0009E850E944B1181112CC0C8010E94E11000
:1025E000FF24F394D6C0282F207F69F77A2DB98A6B
:1025F000A88A6E2D89890E94501189E991E00E9474
:10260000E11086E0F60111928A95E9F70E94901197
:10261000F12CBFC04913D9CFE110D7CFF801858382
:10262000C8010E94E11086E0F60111928A95E9F74F
:10263000B0C0EE2091F220919E01822F82958F7082
:1026400090E002970CF4B2CF8091990190919A0199
:102650009A8389831B82BD82AC822E83CE01019630
:10266000A3CFE83CF10508F047C0FE2CEE2009F4AA
:10267000B4CF561330C049132EC020919E0120FDC7
:1026800021C0822F82958F70482F50E0411551054F
:10269000C9F0F80125834F30510541F08F5F982F25
:1026A0009295907F822F8F70892B8583C8010E941D
:1026B000E11086E0F801A9E9B1E001900D928A9558
:1026C000E1F742C086E0F801A9E9B1E001900D927E
:1026D0008A95E1F75EC04D875E878D859E850E9455
:1026E0004B11811163CF80919E01816080939E0187
:1026F000C8010E94E1104DC07A2DB98AA88A6E2DBA
:1027000089890E94501186E0F60111928A95E9F7B5
:102710001BC0EE2009F461CF4D875E878D859E85B5
:102720000E944B11F82E882309F457CF86E0F80158
:10273000A9E9B1E001900D928A95E1F789E991E06C
:102740000E94300E0E949E110E94901122C04D875F
:102750005E878D859E850E943516292F22952F70C4
:10276000223028F49F7039F0811105C00BC024304D
:1027700028F49F7049F4805E883020F0C8010E94E0
:10278000E1109F2CF92C05C0F8019581907F99F7F5
:10279000F9CF8F2D61960FB6F894DEBF0FBECDBF77
:1027A000DF91CF911F910F91FF90EF90DF90CF902D
:1027B000BF90AF909F9008951F93CF93DF93CDB7B5
:1027C000DEB72C970FB6F894DEBF0FBECDBF4F8398
:1027D000588769877A878B879C87CE0107960E94E6
:1027E0000A128823D1F09F8188852A853B85232B77
:1027F00031F08F3F31F481E09F3F19F403C081E055
:1028000001C080E080FD47C04F81588569857A8589
:102810008B859C850E945F113EC086E0FE01379645
:10282000DE01119601900D928A95E1F7FF81E8850E
:102830006A857B856115710531F0EF3F31F481E0E8
:10284000FF3F19F403C081E001C080E080FD23C098
:102850002091680130E0C901019687709927409165
:10286000670150E084179507F1F1F983EA837D83CE
:102870006C8396E0929FD001939FB00D1124A759CD
:10288000BE4FFE01319601900D929A95E1F780932B
:1028900068010E946F1116E08091670190916801B4
:1028A000891771F1189FC001112487599E4F0E940A
:1028B0000A12882329F1E09167011E9FF00111247B
:1028C000E759FE4F408151816281738184819581F6
:1028D0000E945F118091670190E0019687709927AF
:1028E00080936701D9CF0E94231110926801109242
:1028F0006701E9E9F1E086E0DF011D928A95E9F7D9
:102900002C960FB6F894DEBF0FBECDBFDF91CF91EE
:102910001F910895089508950C948B140C948C14B1
:102920000E948E146093C1017093C2018093C30111
:102930009093C4010C9411110C9490140F931F9355
:102940000091C1011091C2012091C3013091C401D5
:10295000602B712B822B932B1F910F910C94901451
:102960000F931F930091C1011091C2012091C301E7
:102970003091C40160237123822393231F910F910F
:102980000C9490140F931F930091C1011091C201F8
:102990002091C3013091C4016027712782279327BA
:1029A0001F910F910C9490140C948B140E94D414CA
:1029B0006093BD017093BE018093BF019093C001ED
:1029C0000C94111160E070E0CB010C94D6140F93BD
:1029D0001F9341E050E060E070E08A019B0104C079
:1029E000000F111F221F331F8A95D2F7C901B801AA
:1029F0001F910F910C94D6140F931F9341E050E058
:102A000060E070E004C0440F551F661F771F8A9571
:102A1000D2F78091BD019091BE01A091BF01B0910C
:102A2000C0018A019B01082B192B2A2B3B2BC901C2
:102A3000B8011F910F910C94D6140F931F9341E08E
:102A400050E060E070E004C0440F551F661F771F20
:102A50008A95D2F740955095609570958091BD010B
:102A60009091BE01A091BF01B091C0018A019B016C
:102A7000082319232A233B23C901B8011F910F9171
:102A80000C94D6140F931F9341E050E060E070E087
:102A900004C0440F551F661F771F8A95D2F7809197
:102AA000BD019091BE01A091BF01B091C0018A010A
:102AB0009B01082719272A273B27C901B8011F9125
:102AC0000F910C94D6140F931F930091BD01109198
:102AD000BE012091BF013091C001602B712B822B70
:102AE000932B1F910F910C94D6140F931F93009169
:102AF000BD011091BE012091BF013091C001602342
:102B00007123822393231F910F910C94D6140F935A
:102B10001F930091BD011091BE012091BF01309122
:102B2000C00160277127822793271F910F910C9472
:102B3000D6140895292F220F920F990F890FE82F8D
:102B4000E695E695E695877051E001C0550F8A95A8
:102B5000EAF785E0E89FF0011124E156FE4F20E0FE
:102B600030E070E04081CB01022E02C0969587953F
:102B70000A94E2F7817081958427852384278193C5
:102B80002F5F3F4F2530310569F70895292F220F18
:102B9000920F990F890F682F669566956695982F05
:102BA000977085E0689FB001112440E050E080E01C
:102BB000FB01E40FF51FE156FE4F208130E0092EA6
:102BC00002C0369527950A94E2F721703327042E28
:102BD00001C0220F0A94EAF7822B4F5F5F4F453006
:102BE000510531F70895BF92CF92DF92EF92FF9295
:102BF0000F931F93CF93DF938C01C090BD01D090B2
:102C0000BE01E090BF01F090C0018091C1019091A0
:102C1000C201A091C301B091C401C82AD92AEA2AED
:102C2000FB2ACFE1D0E0D701C6010C2E04C0B69537
:102C3000A795979587950A94D2F780FD04C02197B0
:102C400090F7B12C07C0BC2EB8018C2F0E94FC025B
:102C50000197A9F38B2DDF91CF911F910F91FF90D9
:102C6000EF90DF90CF90BF900895CF93DF93EC016A
:102C70000E94F315BE010E94FC02DF91CF910895DE
:102C80001F93CF93DF93EB0190916601992321F07D
:102C9000CB010E94351613C0882349F0CB010E9456
:102CA000F315182F682FCE010E949A1504C0CB018E
:102CB0000E94C615182FBE01812F0E94FC02DF91D1
:102CC000CF911F9108958091C50185958595859532
:102CD00008958091C501877008959091C5019770FE
:102CE00081E009F480E008958091D10108959091E8
:102CF000D101892B8093D101089580959091D101C4
:102D000089238093D10108951092D1010895909163
:102D1000D001892B8093D001089580959091D001A6
:102D200089238093D00108951092D00108951092C4
:102D3000CF0108958091C601089508950C949D16C1
:102D40000C949E169091C601981721F08093C601AD
:102D50000C94A01608958091C601882329F0109242
:102D6000C60180E00C94A0160895E0911101F09145
:102D700012018091D1018083E0911101F091120143
:102D800090818091D001892B8083E0911101F09195
:102D9000120190818091CF01892B80838091C6019F
:102DA000882381F0E0911101F09112019081892B2B
:102DB000808380911101909112010E94C8178111A6
:102DC0000E94AB1680911101909112010C94D80CC5
:102DD0000C949D1698E0899F90011124262B209336
:102DE000C5010E94FC148091C50185958595859546
:102DF0000C94E8161092C50180E00C94E81620911E
:102E0000C501809582238093C501982F977079F42E
:102E100030E0482F082E000C550B2417350739F0E9
:102E20008595859585950E941D150C94FA16089533
:102E300080E0089580E090E00E941D2021E08B3E1C
:102E40009E4F09F020E0822F089582E090E00C94DC
:102E5000152083E090E00C941520CF9384E090E05F
:102E60000E941520C82F81E290E00E9415202C2F8F
:102E700030E0A901582BCA01CF910895CF93C92FF3
:102E8000682F84E090E00E9423206C2F81E290E084
:102E9000CF910C942320AB01BC018FE090E00C9407
:102EA0003520AB01BC0183E190E00C94352060E05B
:102EB00070E0CB010C94511760E070E0CB010E94F0
:102EC0004B170C9457176BEE7EEF80E090E00E945A
:102ED000412060E082E090E00E94232060E083E0F7
:102EE00090E00E9423201092C1011092C201109222
:102EF000C3011092C40160E084E090E00E942320AE
:102F000060E081E290E00E94232060E085E090E0B4
:102F10000E94232060E086E090E00E9423206FEF73
:102F200087E090E00E94232040E050E0BA0188E072
:102F300090E00E94352060E08DE090E00E94232028
:102F400040E050E0BA0188E190E00E94352060E066
:102F500087E190E00E94232040E050E0BA018CE13C
:102F600090E00E94352060E080E290E00E94232003
:102F700040E050E0BA0188E190E00E9435200C94D6
:102F80005C170C946317682F8EE090E00C9423205C
:102F9000FC01329697E080E0915029F021912223A4
:102FA000D9F38F5FF9CF0895662349F0FC0132967B
:102FB00008962191621729F0E817F907D1F780E008
:102FC000089581E008959C01FC0132969FEF80E016
:102FD0004191461789F09F3F19F4411101C0982F84
:102FE0008F5F8630A9F79F3F39F0F901E90FF11D96
:102FF00097FDFA956283089508959C012A5F3F4FDB
:10300000FC014281461301C0128201968217930788
:10301000B9F708950C94E3170C94FD17029626E077
:10302000FC0111922A95E9F7089508950C9415185A
:103030000C941518CF930E9418180E9484050E94C2
:103040001618C0E08C2F0E94B004811104C0CF5F1D
:10305000C830C1F701C081E0CF9108950C941518D4
:103060000C942E188091FE01843049F10E94301892
:1030700080E00E94E0021092D30120E488E190E019
:103080000FB6F894A895809360000FBE209360005F
:1030900083B7817F846083BF83B7816083BF789467
:1030A000889583B78E7F83BF0FB6F894A8958091DB
:1030B0006000886180936000109260000FBE0895E8
:1030C0000C9415180E9423110E94CC0C0E94E0025F
:1030D0000C9460181F920F920FB60F9211248F93C9
:1030E0009F93AF93BF938091D301811113C08091BF
:1030F000F0019091F101A091F201B091F30141969C
:10310000A11DB11D8093F0019093F101A093F201F4
:10311000B093F301BF91AF919F918F910F900FBE2C
:103120000F901F90189582E084BD93E095BD9AEFB3
:1031300097BD80936E0008952FB7F8948091F001A9
:103140009091F101A091F201B091F3012FBF089588
:103150002FB7F8946091F0017091F1018091F20124
:103160009091F3012FBF08959C014FB7F89480917F
:10317000F0019091F101A091F201B091F3014FBFE4
:10318000821B930B089578941F920F920FB60F92A3
:1031900011248F939F93AF93BF938091F0019091EF
:1031A000F101A091F201B091F3010196A11DB11DB1
:1031B0008093F0019093F101A093F201B093F30199
:1031C000BF91AF919F918F910F900FBE0F901F9065
:1031D00018951092F4011092F5011092F6011092D8
:1031E000F7010895CF92DF92EF92FF926B017C017D
:1031F0000E94460681110EC00E94A818C61AD70A5E
:10320000E80AF90AC092F401D092F501E092F601C1
:10321000F092F701FF90EF90DF90CF9008950F9319
:103220001F930E944606882321F01F910F910C9452
:10323000A8180E94A8180091F4011091F50120919E
:10324000F6013091F701600F711F821F931F1F91CC
:103250000F91089587E797E79093010880930008FE
:103260009AE088E10FB6F894A895809360000FBEAD
:1032700090936000FFCF90932D0180932C010895CF
:103280000E941A17811102C00E94C1170E942517BF
:103290008093D2010E942D179093F9018093F80139
:1032A0000E942917682F70E080E090E00E949C1433
:1032B0006091BD017091BE018091BF019091C001EC
:1032C0000C94D4148091DC010895089522E0209399
:1032D000E9002FEF3091E800215035FD06C035EDB3
:1032E0003A95F1F700002111F5CF2091E80025FF74
:1032F0000BC040E050E066E070E00E94491B809106
:10330000E8008E778093E8000895CF93DF9321E063
:103310002093E9002FEF3091E800215035FD06C0E1
:1033200035ED3A95F1F700002111F5CF2091E80035
:1033300025FF14C0EC0140E050E068E070E00E941E
:10334000491B8091E8008E778093E80088E0FE01B9
:10335000A4EDB1E001900D928A95E1F7DF91CF9154
:10336000089508958091FD01811109C00E94DA1C21
:103370000E94371D8091E20084608093E2000895EE
:103380001092FD01089508950895089542E061ECBA
:1033900081E00E94531C42E261EC82E00C94531CD9
:1033A00080910002833009F460C030F4813071F004
:1033B000823009F499C008958A3009F485C08B30B1
:1033C00009F46BC0893009F0A7C020C08091FF01CB
:1033D000813A09F0A1C08091E800877F8093E800DE
:1033E0008091030290910402892B21F468E084ED1E
:1033F00091E003C060E080E090E070E00E94941BE8
:103400008091E8008B778093E80008958091FF0118
:10341000813209F081C080910302909104020297E9
:1034200008F07AC08091E800877F8093E80080915F
:10343000E80082FD05C08091FE018111F8CF6CC0CB
:103440002091F3008091F20090E0922B029729F4F2
:103450008091F1008B7F813021F48091F100809385
:10346000DC018091E8008B7753C08091FF01813AA5
:1034700009F052C08091030290910402892B09F057
:103480004BC08091E800877F8093E8008091E8003E
:1034900080FFFCCF80911D0136C08091FF018132F9
:1034A000D9F58091030290910402892BA9F58091AE
:1034B000E800877F8093E8000E94881C80910102C9
:1034C00080931D010C9423118091FF01813221F51D
:1034D0008091E800877F8093E8000E94881C80919B
:1034E00002028093DD0108958091FF01813AA1F4E9
:1034F0008091E800877F8093E8008091E80080FF5A
:10350000FCCF8091DD018093F1008091E8008E77FF
:103510008093E8000C94881C089584B7877F84BF4B
:103520000FB6F894A8958091600088618093600040
:10353000109260000FBE90E080E80FB6F894809380
:103540006100909361000FBE0E94460D0E94DA1C3C
:103550000E94371D8091E20084608093E20078949D
:103560000E94CC1F0E94500D83E191E00E94C70C85
:103570008091FE018530A9F48091FE01853079F4B7
:103580000E9432188091FC018823B1F30E941A181E
:10359000882391F30E94331B0E942311EDCF0E94D8
:1035A00062180E945A0D0E943A0D0E94390DE0CF18
:1035B0000C94DA1A292F332723303105C9F060F42F
:1035C0002130310581F02230310509F044C08BE310
:1035D00090E028EF32E043C021323105E1F02232A1
:1035E000310549F138C082E190E023E333E037C090
:1035F00099278130910549F028F0029761F5E4EDB3
:10360000F2E005C0E4EFF2E002C0E2EEF2E0849105
:1036100090E09F0124C06115710541F06130710592
:10362000D1F489E090E023E233E019C089E090E032
:103630002AE033E014C06115710541F06130710575
:1036400051F489E490E025E433E009C080E490E09F
:103650002EE833E004C080E090E020E030E0FA01A2
:1036600031832083089580E189BD82E189BD09B459
:1036700000FEFDCF8091D8008F7D8093D80080918F
:10368000E00082608093E0008091E00081FDFCCF4B
:103690000895CF92DF92EF92FF920F931F93CF93F3
:1036A000DF93EC018B017A010E94A71C811133C0CA
:1036B000E114F10439F0F70180819181081B190BA5
:1036C000C80FD91FC12CD12C0115110519F18091FA
:1036D000E80085FD16C08091E8008E778093E800B1
:1036E000E114F10449F0F70180819181C80ED91EDF
:1036F000D182C08285E00FC00E94A71C882321F3DD
:103700000AC089918093F10001501109FFEFCF1A8F
:10371000DF0ADACF80E0DF91CF911F910F91FF9008
:10372000EF90DF90CF90089520910502309106022E
:103730002617370748F06115710539F42091E80024
:103740002E772093E80001C0B901FC0120E061154B
:10375000710579F18091FE018823F1F18530F1F155
:103760008091E80083FD3CC08091E80082FD2EC07E
:103770008091E80080FFEBCF2091F3008091F20070
:1037800090E0922B6115710551F08830910538F465
:1037900021912093F100615071090196F3CF21E04E
:1037A000089709F020E08091E8008E778093E80088
:1037B000CECF2111CFCF0AC08091FE01882361F0C6
:1037C000853061F08091E80083FD0AC08091E800B7
:1037D00082FFF2CF80E0089582E0089583E00895AB
:1037E00081E00895209105023091060226173707DF
:1037F00048F06115710539F42091E8002E77209387
:10380000E80001C0B901FC0120E06115710591F1EA
:103810008091FE01882309F440C0853009F43FC03F
:103820008091E80083FD3DC08091E80082FD2FC0BB
:103830008091E80080FFE9CF2091F3008091F200B1
:1038400090E0922B6115710559F08830910540F494
:1038500024912093F1003196615071090196F2CFC5
:1038600021E0089709F020E08091E8008E778093AE
:10387000E800CBCF2111CCCF0AC08091FE01882374
:1038800061F0853061F08091E80083FD0AC080918D
:10389000E80082FFF2CF80E0089582E0089583E09F
:1038A000089581E00895982F973068F59093E90086
:1038B000981739F07091EC002091ED005091F000D4
:1038C00003C0242F762F50E021FD02C09F5FECCF74
:1038D0003091EB003E7F3093EB003091ED003D7F67
:1038E0003093ED003091EB0031603093EB0070933A
:1038F000EC002093ED005093F0002091EE0027FDA6
:10390000E5CF80E008958F708093E90081E008950D
:103910008091FF0187FF11C08091E80082FD05C002
:103920008091FE018111F8CF11C08091E8008B7762
:103930000BC08091FE01882349F08091E80080FF50
:10394000F8CF8091E8008E778093E8000895209169
:10395000E4003091E50095E64091EC00842F817001
:1039600040FF23C08091E80080FD1DC08091FE01D2
:10397000882399F0853099F08091EB0085FD11C086
:103980004091E4005091E5002417350729F3915048
:1039900011F09A01E1CF84E0089582E0089583E078
:1039A000089581E0089580E008954091E80042FF85
:1039B000DDCF08950E94481D0E94501DE0EEF0E00A
:1039C000808181608083E8EDF0E080818F77808363
:1039D00019BCA7EDB0E08C918E7F8C9380818F7E97
:1039E00080831092FD0108950F931F93CF93DF936F
:1039F0000E94481D0E94501DC8EDD0E088818F773D
:103A0000888388818068888388818F7D888319BCBA
:103A10001092FE011092FA011092FC011092FB012B
:103A200000EE10E0F80180818B7F808388818160C7
:103A3000888342E060E080E00E94531CE1EEF0E009
:103A400080818E7F8083E2EEF0E0808181608083E0
:103A5000808188608083F80180818E7F8083888167
:103A600080618883DF91CF911F910F910895E8EDD8
:103A7000F0E080818F7E8083E7EDF0E080818160DF
:103A8000808384E082BF81E08093FD010C94F41C6C
:103A9000E8EDF0E080818E7F80831092E20008954F
:103AA0001092DA001092E10008951F920F920FB663
:103AB0000F9211242F933F934F935F936F937F93B4
:103AC0008F939F93AF93BF93EF93FF938091E10008
:103AD00082FF0BC08091E20082FF07C08091E1006D
:103AE0008B7F8093E1000E94CB1F8091DA0080FFE2
:103AF0001FC08091D80080FF1BC08091DA008E7FAC
:103B00008093DA008091D90080FF0DC080E189BDEB
:103B100082E189BD09B400FEFDCF81E08093FE0102
:103B20000E94B21905C019BC1092FE010E94C01972
:103B30008091E10080FF19C08091E20080FF15C0F4
:103B40008091E2008E7F8093E2008091E2008061AC
:103B50008093E2008091D80080628093D80019BCE5
:103B600085E08093FE010E94C4198091E10084FFEA
:103B700030C08091E20084FF2CC080E189BD82E1E9
:103B800089BD09B400FEFDCF8091D8008F7D809360
:103B9000D8008091E1008F7E8093E1008091E20067
:103BA0008F7E8093E2008091E20081608093E2004A
:103BB0008091FA01882311F084E007C08091E3002E
:103BC00087FD02C081E001C083E08093FE010E9476
:103BD000C5198091E10083FF29C08091E20083FF35
:103BE00025C08091E100877F8093E10082E080938F
:103BF000FE011092FA018091E1008E7F8093E10036
:103C00008091E2008E7F8093E2008091E2008061EB
:103C10008093E20042E060E080E00E94531C8091CB
:103C2000F00088608093F0000E94C319FF91EF912B
:103C3000BF91AF919F918F917F916F915F914F91C4
:103C40003F912F910F900FBE0F901F9018951F92CC
:103C50000F920FB60F9211242F933F934F935F93C0
:103C60006F937F938F939F93AF93BF93CF93DF9384
:103C7000EF93FF93C091E900CF708091EC00D82FB3
:103C8000D17080FDD0E81092E9008091F000877F2C
:103C90008093F00078940E946B1E1092E90080914E
:103CA000F00088608093F000CD2BCF70C093E900C6
:103CB000FF91EF91DF91CF91BF91AF919F918F9144
:103CC0007F916F915F914F913F912F910F900FBE18
:103CD0000F901F9018951F93CF93DF93CDB7DEB74A
:103CE000AA970FB6F894DEBF0FBECDBFEFEFF1E09D
:103CF0008091F100819322E0E730F207C9F70E943A
:103D0000D0198091E80083FF2EC18091FF0190912E
:103D10000002492F50E04A30510508F024C1FA0151
:103D2000E059FF4F0C94FB1F803821F0823809F0D6
:103D30001AC108C08091FB019091FC01992389F080
:103D400082600FC0809103028F70873008F00BC132
:103D50008093E9008091EB0085FB882780F9109221
:103D6000E9009091E800977F9093E8008093F1003C
:103D70001092F100D1C0282F2D7F09F0F4C08823C4
:103D800019F0823061F0EFC080910102813009F0BA
:103D9000EAC0933009F080E08093FC012EC080914E
:103DA000010281112AC0809103028F702FEF280F2A
:103DB000263008F0D8C08093E9002091EB0020FF66
:103DC0001CC0933021F48091EB00806214C090916C
:103DD000EB0090619093EB0021E030E0A90102C07C
:103DE000440F551F8A95E2F74093EA001092EA00CB
:103DF0008091EB0088608093EB001092E900809145
:103E0000E800877F8093E8000E94881CACC0811185
:103E1000AAC0109101021F778091E3008078812B66
:103E20008093E3008091E800877F8093E8000E9400
:103E3000881C8091E80080FFFCCF8091E3008068BF
:103E40008093E300111102C082E001C083E08093FF
:103E5000FE0189C08058823008F085C0809101023F
:103E6000909102028C3D53E0950779F583E08A83B7
:103E70008AE289834FB7F894DE01139620E03EE092
:103E800051E2E32FF0E050935700E49120FF03C08C
:103E9000E295EF703F5FEF708E2F90E0EA3010F008
:103EA000C79601C0C0968D939D932F5F243149F72B
:103EB0004FBF8091E800877F8093E8006AE270E05E
:103EC000CE0101960E94941B16C06091030270916E
:103ED0000402AE014F5F5F4F0E94D81ABC01892BCC
:103EE00009F441C09091E800977F9093E8008981A0
:103EF0009A810E94F21B8091E8008B778093E80002
:103F000032C0803881F58091E800877F8093E80097
:103F10008091FA018093F1008091E8008E7772CF52
:103F2000811121C08091010290910202992702978C
:103F3000D4F48091E800877F8093E80080910102AB
:103F40008093FA010E94881C8091FA01811106C0B9
:103F50008091E30087FD02C081E001C084E080938E
:103F6000FE010E94C6198091E80083FF0AC080917B
:103F7000E800877F8093E8008091EB008062809367
:103F8000EB00AA960FB6F894DEBF0FBECDBFDF914F
:103F9000CF911F9108950895CF938091FE018823BA
:103FA000A1F0C091E900CF709091EC00892F817051
:103FB00090FD80E8C82B1092E9008091E80083FD15
:103FC0000E946B1ECF70C093E900CF91089597FBBC
:103FD000072E16F4009407D077FD09D00E94012027
:103FE00007FC05D03EF4909581959F4F08957095FC
:103FF00061957F4F0895EE0FFF1F0590F491E02D1E
:104000000994AA1BBB1B51E107C0AA1FBB1FA6171F
:10401000B70710F0A61BB70B881F991F5A95A9F771
:1040200080959095BC01CD010895F999FECF92BD80
:1040300081BDF89A992780B50895A8E1B0E042E0E3
:1040400050E00C944920262FF999FECF92BD81BDF6
:10405000F89A019700B4021639F01FBA20BD0FB6C6
:10406000F894FA9AF99A0FBE08950396272F0E94A2
:1040700024200E942320252F0E942420242F0C94EA
:1040800024200196272F0E9424200C942320DC0159
:10409000CB01FC01F999FECF06C0F2BDE1BDF89A53
:1040A000319600B40D9241505040B8F70895F894FD
:0240B000FFCF40
:1040B200012808641E140A321E4401044501044901
:1040C20001C701621985196619B119651901F4F55B
:0C40D200F6F73133946697C6000000003A
:00000001FF
